:100323009F09099FF99090F9010711048142034441
:100333008800010203070B0F0E0D0C0804050609C4
:100343000A00010203070B0F0E0D0C080405060932
:010353000A9F
:0903CF00AF051204057FC87E0091
:0B03D800EF1FAC0670011E4C70F622F7
:0C0413007F177E987D46DDFEDEFADFF6E6
:01041F0022BA
:0F039800C374039BFF1204057F987E3A1203D8AB
:0F03A7007590F0E4F580D2A6D2A7C2A6C2A72215
:04043600E4F5902237
:10037700EFD39407500B741C2FF8E6F580D2A780B3
:100387000B74F82F241CF8E6F580D2A6C2A7C2A6E4
:010397002243
:0E04050074182FF8E6F5907F0A7E000203D8E7
:0A042C00EF25E025E02DFF02037725
:0C042000AA07AF03120405AF0202042C6F
:1002AF00E4F52DF52CE4F9AF01AD01AB2C120420D0
:1002BF007FD07E071203D812043609B904E9052D41
:1002CF00D3E52D94F47480948150DAE4F52D7F50AA
:0E02DF007EC31203D8052CE52CD3940340C730
:0102ED0022EE
:10035400E4FBAF031204057580FFD2A7D2A6C2A79F
:10036400C2A61204131204131203A70BEBC39404C2
:0203740040E067
:010376002264
:1002EE00E4FBFAAF081204057580FFD2A7D2A6C2AE
:1002FE00A7C2A67F647E001203D80508E508C39442
:10030E00044003E4F5081203A70BBB00010ABA0B65
:04031E00D2BBB9CFC6
:0103220022B8
:1001850078247C007D007BFF7A0379237E007F0441
:100195001200D378287C007D007BFF7A0379277EC7
:1001A500007F041200D3E4FD74242DF8E6F580D217
:1001B500A7C2A71203CF1203A774282DF8E6F5806E
:0E01C500D2A6C2A61203CF1203A70DBD04DA04
:0101D3002209
:1003B600E4F52EE52EC3941E4005E4F52E800712C3
:0903C6000185052E80ED020413EF
:1001D40078087C007D007BFF7A03792B7E007F0901
:1001E4001200D3E4FDE4FB74082DF8E6F580D2A7F1
:1001F400C2A71203980BBB04EEE4FBC374089D244E
:1002040008F8E6F580D2A6C2A61203980BBB04EB4D
:0A0214000DBD09D11203540203A727
:1002680078087C007D007BFF7A0379347E007F105C
:100278001200D3E4FDE4FBE4FAEB20E00574082A5D
:100288008006C3740F9A2408F8E6FF120377AF03B9
:100298001204057F887E131203D80ABA10DB0BBB41
:0602A80004D50DBD03CFDB
:0102AE00222D
:10021E0078087C007D007BFF7A0379447E007F1096
:10022E001200D3E4FDE4FBE4FAEB20E00574082AA7
:10023E008006C3740F9A2408F8E6FF120377AF0303
:10024E001204057F887E131203D81203A70ABA1070
:09025E00D80BBB04D20DBD03CC8A
:010267002274
:1003F400041801020408081C0102040810204080AB
:1003E3001203A712021E1201D41202681202EE8037
:0103F300F217
:030000000200F902
:0C00F900787FE4F6D8FD75812E020140EE
:10000300E709F608DFFA8046E709F208DFFA803EDF
:1000130088828C83E709F0A3DFFA8032E309F608CC
:10002300DFFA8078E309F208DFFA807088828C8334
:10003300E309F0A3DFFA806489828A83E0A3F608E8
:10004300DFFA805889828A83E0A3F208DFFA804CC2
:1000530080D280FA80C680D4806980F28033801099
:1000630080A680EA809A80A880DA80E280CA803302
:1000730089828A83ECFAE493A3C8C582C8CCC5837A
:10008300CCF0A3C8C582C8CCC583CCDFE9DEE7804A
:100093000D89828A83E493A3F608DFF9ECFAA9F0C9
:1000A300EDFB2289828A83ECFAE0A3C8C582C8CC1F
:1000B300C583CCF0A3C8C582C8CCC583CCDFEADE38
:1000C300E880DB89828A83E493A3F208DFF980CC9A
:1000D30088F0EF60010E4E60C388F0ED2402B40493
:1000E3000050B9F582EB2402B4040050AF2323453A
:0600F3008223900053730C
:100105000203E3E493A3F8E493A34003F68001F22A
:1001150008DFF48029E493A3F85407240CC8C333FB
:10012500C4540F4420C8834004F456800146F6DFCA
:10013500E4800B01020408102040809003F4E47E63
:10014500019360BCA3FF543F30E509541FFEE493BF
:10015500A360010ECF54C025E060A840B8E493A386
:10016500FAE493A3F8E493A3C8C582C8CAC583CAB1
:10017500F0A3C8C582C8CAC583CADFE9DEE780BE69
:0104040000F7
:00000001FF
